{
  "_format": "hh-sol-artifact-1",
  "contractName": "Upload",
  "sourceName": "contracts/Upload.sol",
  "abi": [
    {
      "inputs": [
        {
          "internalType": "address",
          "name": "_user",
          "type": "address"
        },
        {
          "internalType": "string",
          "name": "url",
          "type": "string"
        }
      ],
      "name": "add",
      "outputs": [],
      "stateMutability": "nonpayable",
      "type": "function"
    },
    {
      "inputs": [
        {
          "internalType": "address",
          "name": "user",
          "type": "address"
        }
      ],
      "name": "allow",
      "outputs": [],
      "stateMutability": "nonpayable",
      "type": "function"
    },
    {
      "inputs": [
        {
          "internalType": "address",
          "name": "_user",
          "type": "address"
        },
        {
          "internalType": "uint256",
          "name": "index",
          "type": "uint256"
        }
      ],
      "name": "approverequest",
      "outputs": [],
      "stateMutability": "nonpayable",
      "type": "function"
    },
    {
      "inputs": [
        {
          "internalType": "address",
          "name": "_user",
          "type": "address"
        }
      ],
      "name": "checkstatusadmin",
      "outputs": [
        {
          "components": [
            {
              "internalType": "address",
              "name": "user",
              "type": "address"
            },
            {
              "internalType": "string",
              "name": "url",
              "type": "string"
            },
            {
              "internalType": "uint256",
              "name": "index",
              "type": "uint256"
            },
            {
              "internalType": "uint256",
              "name": "status",
              "type": "uint256"
            }
          ],
          "internalType": "struct Upload.Share[]",
          "name": "",
          "type": "tuple[]"
        }
      ],
      "stateMutability": "view",
      "type": "function"
    },
    {
      "inputs": [
        {
          "internalType": "string",
          "name": "a",
          "type": "string"
        },
        {
          "internalType": "string",
          "name": "b",
          "type": "string"
        }
      ],
      "name": "compareStrings",
      "outputs": [
        {
          "internalType": "bool",
          "name": "",
          "type": "bool"
        }
      ],
      "stateMutability": "pure",
      "type": "function"
    },
    {
      "inputs": [
        {
          "internalType": "address",
          "name": "user",
          "type": "address"
        }
      ],
      "name": "disallow",
      "outputs": [],
      "stateMutability": "nonpayable",
      "type": "function"
    },
    {
      "inputs": [
        {
          "internalType": "address",
          "name": "_user",
          "type": "address"
        },
        {
          "internalType": "uint256",
          "name": "index",
          "type": "uint256"
        }
      ],
      "name": "disapproverequest",
      "outputs": [],
      "stateMutability": "nonpayable",
      "type": "function"
    },
    {
      "inputs": [
        {
          "internalType": "address",
          "name": "_user",
          "type": "address"
        }
      ],
      "name": "display",
      "outputs": [
        {
          "internalType": "string[]",
          "name": "",
          "type": "string[]"
        }
      ],
      "stateMutability": "view",
      "type": "function"
    },
    {
      "inputs": [
        {
          "internalType": "address",
          "name": "_admin",
          "type": "address"
        }
      ],
      "name": "sendrequest",
      "outputs": [],
      "stateMutability": "nonpayable",
      "type": "function"
    },
    {
      "inputs": [],
      "name": "shareAccess",
      "outputs": [
        {
          "components": [
            {
              "internalType": "address",
              "name": "user",
              "type": "address"
            },
            {
              "internalType": "bool",
              "name": "access",
              "type": "bool"
            }
          ],
          "internalType": "struct Upload.Access[]",
          "name": "",
          "type": "tuple[]"
        }
      ],
      "stateMutability": "view",
      "type": "function"
    },
    {
      "inputs": [],
      "name": "showstatus",
      "outputs": [
        {
          "components": [
            {
              "internalType": "address",
              "name": "user",
              "type": "address"
            },
            {
              "internalType": "string",
              "name": "url",
              "type": "string"
            },
            {
              "internalType": "uint256",
              "name": "index",
              "type": "uint256"
            },
            {
              "internalType": "uint256",
              "name": "status",
              "type": "uint256"
            }
          ],
          "internalType": "struct Upload.Share[]",
          "name": "",
          "type": "tuple[]"
        }
      ],
      "stateMutability": "view",
      "type": "function"
    }
  ],
  "bytecode": "0x60806040526000805534801561001457600080fd5b5061208e806100246000396000f3fe608060405234801561001057600080fd5b50600436106100a95760003560e01c8063a9ed9cb811610071578063a9ed9cb81461014e578063bc8bef811461016a578063bed34bba14610188578063eb39113f146101b8578063f84fc0f9146101e8578063ff9913e814610206576100a9565b80630695a2a5146100ae5780632530bac0146100ca57806336d6da55146100fa57806342e91f451461011657806398f51f8114610132575b600080fd5b6100c860048036038101906100c39190611836565b610222565b005b6100e460048036038101906100df9190611876565b61028d565b6040516100f19190611a7f565b60405180910390f35b610114600480360381019061010f9190611bd6565b610427565b005b610130600480360381019061012b9190611876565b610617565b005b61014c60048036038101906101479190611836565b610b41565b005b61016860048036038101906101639190611876565b610bad565b005b610172610dd0565b60405161017f9190611d2b565b60405180910390f35b6101a2600480360381019061019d9190611d4d565b610ed9565b6040516101af9190611dd4565b60405180910390f35b6101d260048036038101906101cd9190611876565b610ef4565b6040516101df9190611eb1565b60405180910390f35b6101f061110b565b6040516101fd9190611a7f565b60405180910390f35b610220600480360381019061021b9190611876565b6112a3565b005b60018060008473ffffffffffffffffffffffffffffffffffffffff1673ffffffffffffffffffffffffffffffffffffffff168152602001908152602001600020828154811061027457610273611ed3565b5b9060005260206000209060040201600301819055505050565b6060600160008373ffffffffffffffffffffffffffffffffffffffff1673ffffffffffffffffffffffffffffffffffffffff168152602001908152602001600020805480602002602001604051908101604052809291908181526020016000905b8282101561041c57838290600052602060002090600402016040518060800160405290816000820160009054906101000a900473ffffffffffffffffffffffffffffffffffffffff1673ffffffffffffffffffffffffffffffffffffffff1673ffffffffffffffffffffffffffffffffffffffff16815260200160018201805461037790611f31565b80601f01602080910402602001604051908101604052809291908181526020018280546103a390611f31565b80156103f05780601f106103c5576101008083540402835291602001916103f0565b820191906000526020600020905b8154815290600101906020018083116103d357829003601f168201915b5050505050815260200160028201548152602001600382015481525050815260200190600101906102ee565b505050509050919050565b6000805b600360008573ffffffffffffffffffffffffffffffffffffffff1673ffffffffffffffffffffffffffffffffffffffff1681526020019081526020016000208054905081101561058a576000600360008673ffffffffffffffffffffffffffffffffffffffff1673ffffffffffffffffffffffffffffffffffffffff16815260200190815260200160002082815481106104c8576104c7611ed3565b5b9060005260206000200180546104dd90611f31565b80601f016020809104026020016040519081016040528092919081815260200182805461050990611f31565b80156105565780601f1061052b57610100808354040283529160200191610556565b820191906000526020600020905b81548152906001019060200180831161053957829003601f168201915b505050505090506105678185610ed9565b1561057657600192505061058a565b50808061058290611f92565b91505061042b565b5060001515811515141561061257600360008473ffffffffffffffffffffffffffffffffffffffff1673ffffffffffffffffffffffffffffffffffffffff168152602001908152602001600020829080600181540180825580915050600190039060005260206000200160009091909190915090805190602001906106109291906116eb565b505b505050565b60005b600360003373ffffffffffffffffffffffffffffffffffffffff1673ffffffffffffffffffffffffffffffffffffffff16815260200190815260200160002080549050811015610ad1576000805b600160003373ffffffffffffffffffffffffffffffffffffffff1673ffffffffffffffffffffffffffffffffffffffff168152602001908152602001600020805490508110156108b1576000600160003373ffffffffffffffffffffffffffffffffffffffff1673ffffffffffffffffffffffffffffffffffffffff168152602001908152602001600020828154811061070557610704611ed3565b5b9060005260206000209060040201600101805461072190611f31565b80601f016020809104026020016040519081016040528092919081815260200182805461074d90611f31565b801561079a5780601f1061076f5761010080835404028352916020019161079a565b820191906000526020600020905b81548152906001019060200180831161077d57829003601f168201915b5050505050905061088e81600360003373ffffffffffffffffffffffffffffffffffffffff1673ffffffffffffffffffffffffffffffffffffffff16815260200190815260200160002086815481106107f6576107f5611ed3565b5b90600052602060002001805461080b90611f31565b80601f016020809104026020016040519081016040528092919081815260200182805461083790611f31565b80156108845780601f1061085957610100808354040283529160200191610884565b820191906000526020600020905b81548152906001019060200180831161086757829003601f168201915b5050505050610ed9565b1561089d5760019250506108b1565b5080806108a990611f92565b915050610668565b50600015158115151415610abd57600160003373ffffffffffffffffffffffffffffffffffffffff1673ffffffffffffffffffffffffffffffffffffffff16815260200190815260200160002060405180608001604052803373ffffffffffffffffffffffffffffffffffffffff168152602001600360003373ffffffffffffffffffffffffffffffffffffffff1673ffffffffffffffffffffffffffffffffffffffff168152602001908152602001600020858154811061097657610975611ed3565b5b90600052602060002001805461098b90611f31565b80601f01602080910402602001604051908101604052809291908181526020018280546109b790611f31565b8015610a045780601f106109d957610100808354040283529160200191610a04565b820191906000526020600020905b8154815290600101906020018083116109e757829003601f168201915b505050505081526020018481526020016000815250908060018154018082558091505060019003906000526020600020906004020160009091909190915060008201518160000160006101000a81548173ffffffffffffffffffffffffffffffffffffffff021916908373ffffffffffffffffffffffffffffffffffffffff1602179055506020820151816001019080519060200190610aa59291906116eb565b50604082015181600201556060820151816003015550505b508080610ac990611f92565b91505061061a565b506002339080600181540180825580915050600190039060005260206000200160009091909190916101000a81548173ffffffffffffffffffffffffffffffffffffffff021916908373ffffffffffffffffffffffffffffffffffffffff160217905550610b3e816112a3565b50565b6002600160008473ffffffffffffffffffffffffffffffffffffffff1673ffffffffffffffffffffffffffffffffffffffff1681526020019081526020016000208281548110610b9457610b93611ed3565b5b9060005260206000209060040201600301819055505050565b6000600660003373ffffffffffffffffffffffffffffffffffffffff1673ffffffffffffffffffffffffffffffffffffffff16815260200190815260200160002060008373ffffffffffffffffffffffffffffffffffffffff1673ffffffffffffffffffffffffffffffffffffffff16815260200190815260200160002060006101000a81548160ff02191690831515021790555060005b600460003373ffffffffffffffffffffffffffffffffffffffff1673ffffffffffffffffffffffffffffffffffffffff16815260200190815260200160002080549050811015610dcc578173ffffffffffffffffffffffffffffffffffffffff16600460003373ffffffffffffffffffffffffffffffffffffffff1673ffffffffffffffffffffffffffffffffffffffff1681526020019081526020016000208281548110610cf757610cf6611ed3565b5b9060005260206000200160000160009054906101000a900473ffffffffffffffffffffffffffffffffffffffff1673ffffffffffffffffffffffffffffffffffffffff161415610db9576000600460003373ffffffffffffffffffffffffffffffffffffffff1673ffffffffffffffffffffffffffffffffffffffff1681526020019081526020016000208281548110610d9457610d93611ed3565b5b9060005260206000200160000160146101000a81548160ff0219169083151502179055505b8080610dc490611f92565b915050610c45565b5050565b6060600460003373ffffffffffffffffffffffffffffffffffffffff1673ffffffffffffffffffffffffffffffffffffffff168152602001908152602001600020805480602002602001604051908101604052809291908181526020016000905b82821015610ed0578382906000526020600020016040518060400160405290816000820160009054906101000a900473ffffffffffffffffffffffffffffffffffffffff1673ffffffffffffffffffffffffffffffffffffffff1673ffffffffffffffffffffffffffffffffffffffff1681526020016000820160149054906101000a900460ff16151515158152505081526020019060010190610e31565b50505050905090565b60008180519060200120838051906020012014905092915050565b60603373ffffffffffffffffffffffffffffffffffffffff168273ffffffffffffffffffffffffffffffffffffffff161480610fb65750600660008373ffffffffffffffffffffffffffffffffffffffff1673ffffffffffffffffffffffffffffffffffffffff16815260200190815260200160002060003373ffffffffffffffffffffffffffffffffffffffff1673ffffffffffffffffffffffffffffffffffffffff16815260200190815260200160002060009054906101000a900460ff165b610ff5576040517f08c379a0000000000000000000000000000000000000000000000000000000008152600401610fec90612038565b60405180910390fd5b600360008373ffffffffffffffffffffffffffffffffffffffff1673ffffffffffffffffffffffffffffffffffffffff168152602001908152602001600020805480602002602001604051908101604052809291908181526020016000905b8282101561110057838290600052602060002001805461107390611f31565b80601f016020809104026020016040519081016040528092919081815260200182805461109f90611f31565b80156110ec5780601f106110c1576101008083540402835291602001916110ec565b820191906000526020600020905b8154815290600101906020018083116110cf57829003601f168201915b505050505081526020019060010190611054565b505050509050919050565b6060600160003373ffffffffffffffffffffffffffffffffffffffff1673ffffffffffffffffffffffffffffffffffffffff168152602001908152602001600020805480602002602001604051908101604052809291908181526020016000905b8282101561129a57838290600052602060002090600402016040518060800160405290816000820160009054906101000a900473ffffffffffffffffffffffffffffffffffffffff1673ffffffffffffffffffffffffffffffffffffffff1673ffffffffffffffffffffffffffffffffffffffff1681526020016001820180546111f590611f31565b80601f016020809104026020016040519081016040528092919081815260200182805461122190611f31565b801561126e5780601f106112435761010080835404028352916020019161126e565b820191906000526020600020905b81548152906001019060200180831161125157829003601f168201915b50505050508152602001600282015481526020016003820154815250508152602001906001019061116c565b50505050905090565b6001600660003373ffffffffffffffffffffffffffffffffffffffff1673ffffffffffffffffffffffffffffffffffffffff16815260200190815260200160002060008373ffffffffffffffffffffffffffffffffffffffff1673ffffffffffffffffffffffffffffffffffffffff16815260200190815260200160002060006101000a81548160ff021916908315150217905550600560003373ffffffffffffffffffffffffffffffffffffffff1673ffffffffffffffffffffffffffffffffffffffff16815260200190815260200160002060008273ffffffffffffffffffffffffffffffffffffffff1673ffffffffffffffffffffffffffffffffffffffff16815260200190815260200160002060009054906101000a900460ff16156115575760005b600460003373ffffffffffffffffffffffffffffffffffffffff1673ffffffffffffffffffffffffffffffffffffffff16815260200190815260200160002080549050811015611551578173ffffffffffffffffffffffffffffffffffffffff16600460003373ffffffffffffffffffffffffffffffffffffffff1673ffffffffffffffffffffffffffffffffffffffff168152602001908152602001600020828154811061147c5761147b611ed3565b5b9060005260206000200160000160009054906101000a900473ffffffffffffffffffffffffffffffffffffffff1673ffffffffffffffffffffffffffffffffffffffff16141561153e576001600460003373ffffffffffffffffffffffffffffffffffffffff1673ffffffffffffffffffffffffffffffffffffffff168152602001908152602001600020828154811061151957611518611ed3565b5b9060005260206000200160000160146101000a81548160ff0219169083151502179055505b808061154990611f92565b9150506113ca565b506116e8565b600460003373ffffffffffffffffffffffffffffffffffffffff1673ffffffffffffffffffffffffffffffffffffffff16815260200190815260200160002060405180604001604052808373ffffffffffffffffffffffffffffffffffffffff168152602001600115158152509080600181540180825580915050600190039060005260206000200160009091909190915060008201518160000160006101000a81548173ffffffffffffffffffffffffffffffffffffffff021916908373ffffffffffffffffffffffffffffffffffffffff16021790555060208201518160000160146101000a81548160ff02191690831515021790555050506001600560003373ffffffffffffffffffffffffffffffffffffffff1673ffffffffffffffffffffffffffffffffffffffff16815260200190815260200160002060008373ffffffffffffffffffffffffffffffffffffffff1673ffffffffffffffffffffffffffffffffffffffff16815260200190815260200160002060006101000a81548160ff0219169083151502179055505b50565b8280546116f790611f31565b90600052602060002090601f0160209004810192826117195760008555611760565b82601f1061173257805160ff1916838001178555611760565b82800160010185558215611760579182015b8281111561175f578251825591602001919060010190611744565b5b50905061176d9190611771565b5090565b5b8082111561178a576000816000905550600101611772565b5090565b6000604051905090565b600080fd5b600080fd5b600073ffffffffffffffffffffffffffffffffffffffff82169050919050565b60006117cd826117a2565b9050919050565b6117dd816117c2565b81146117e857600080fd5b50565b6000813590506117fa816117d4565b92915050565b6000819050919050565b61181381611800565b811461181e57600080fd5b50565b6000813590506118308161180a565b92915050565b6000806040838503121561184d5761184c611798565b5b600061185b858286016117eb565b925050602061186c85828601611821565b9150509250929050565b60006020828403121561188c5761188b611798565b5b600061189a848285016117eb565b91505092915050565b600081519050919050565b600082825260208201905092915050565b6000819050602082019050919050565b6118d8816117c2565b82525050565b600081519050919050565b600082825260208201905092915050565b60005b838110156119185780820151818401526020810190506118fd565b83811115611927576000848401525b50505050565b6000601f19601f8301169050919050565b6000611949826118de565b61195381856118e9565b93506119638185602086016118fa565b61196c8161192d565b840191505092915050565b61198081611800565b82525050565b600060808301600083015161199e60008601826118cf565b50602083015184820360208601526119b6828261193e565b91505060408301516119cb6040860182611977565b5060608301516119de6060860182611977565b508091505092915050565b60006119f58383611986565b905092915050565b6000602082019050919050565b6000611a15826118a3565b611a1f81856118ae565b935083602082028501611a31856118bf565b8060005b85811015611a6d5784840389528151611a4e85826119e9565b9450611a59836119fd565b925060208a01995050600181019050611a35565b50829750879550505050505092915050565b60006020820190508181036000830152611a998184611a0a565b905092915050565b600080fd5b600080fd5b7f4e487b7100000000000000000000000000000000000000000000000000000000600052604160045260246000fd5b611ae38261192d565b810181811067ffffffffffffffff82111715611b0257611b01611aab565b5b80604052505050565b6000611b1561178e565b9050611b218282611ada565b919050565b600067ffffffffffffffff821115611b4157611b40611aab565b5b611b4a8261192d565b9050602081019050919050565b82818337600083830152505050565b6000611b79611b7484611b26565b611b0b565b905082815260208101848484011115611b9557611b94611aa6565b5b611ba0848285611b57565b509392505050565b600082601f830112611bbd57611bbc611aa1565b5b8135611bcd848260208601611b66565b91505092915050565b60008060408385031215611bed57611bec611798565b5b6000611bfb858286016117eb565b925050602083013567ffffffffffffffff811115611c1c57611c1b61179d565b5b611c2885828601611ba8565b9150509250929050565b600081519050919050565b600082825260208201905092915050565b6000819050602082019050919050565b60008115159050919050565b611c7381611c5e565b82525050565b604082016000820151611c8f60008501826118cf565b506020820151611ca26020850182611c6a565b50505050565b6000611cb48383611c79565b60408301905092915050565b6000602082019050919050565b6000611cd882611c32565b611ce28185611c3d565b9350611ced83611c4e565b8060005b83811015611d1e578151611d058882611ca8565b9750611d1083611cc0565b925050600181019050611cf1565b5085935050505092915050565b60006020820190508181036000830152611d458184611ccd565b905092915050565b60008060408385031215611d6457611d63611798565b5b600083013567ffffffffffffffff811115611d8257611d8161179d565b5b611d8e85828601611ba8565b925050602083013567ffffffffffffffff811115611daf57611dae61179d565b5b611dbb85828601611ba8565b9150509250929050565b611dce81611c5e565b82525050565b6000602082019050611de96000830184611dc5565b92915050565b600081519050919050565b600082825260208201905092915050565b6000819050602082019050919050565b6000611e27838361193e565b905092915050565b6000602082019050919050565b6000611e4782611def565b611e518185611dfa565b935083602082028501611e6385611e0b565b8060005b85811015611e9f5784840389528151611e808582611e1b565b9450611e8b83611e2f565b925060208a01995050600181019050611e67565b50829750879550505050505092915050565b60006020820190508181036000830152611ecb8184611e3c565b905092915050565b7f4e487b7100000000000000000000000000000000000000000000000000000000600052603260045260246000fd5b7f4e487b7100000000000000000000000000000000000000000000000000000000600052602260045260246000fd5b60006002820490506001821680611f4957607f821691505b60208210811415611f5d57611f5c611f02565b5b50919050565b7f4e487b7100000000000000000000000000000000000000000000000000000000600052601160045260246000fd5b6000611f9d82611800565b91507fffffffffffffffffffffffffffffffffffffffffffffffffffffffffffffffff821415611fd057611fcf611f63565b5b600182019050919050565b600082825260208201905092915050565b7f596f7520646f6e27742068617665206163636573730000000000000000000000600082015250565b6000612022601583611fdb565b915061202d82611fec565b602082019050919050565b6000602082019050818103600083015261205181612015565b905091905056fea2646970667358221220e8e8861fcd454ab28e3ef450eb2a721c39ba593448d2b3953f14214ea100623864736f6c63430008090033",
  "linkReferences": {},
  "deployedLinkReferences": {}
}